{
  "contractName": "VendingMachine",
  "abi": [
    {
      "inputs": [],
      "stateMutability": "nonpayable",
      "type": "constructor"
    },
    {
      "inputs": [
        {
          "internalType": "address",
          "name": "",
          "type": "address"
        }
      ],
      "name": "donutBalances",
      "outputs": [
        {
          "internalType": "uint256",
          "name": "",
          "type": "uint256"
        }
      ],
      "stateMutability": "view",
      "type": "function",
      "constant": true
    },
    {
      "inputs": [],
      "name": "owner",
      "outputs": [
        {
          "internalType": "address",
          "name": "",
          "type": "address"
        }
      ],
      "stateMutability": "view",
      "type": "function",
      "constant": true
    },
    {
      "inputs": [],
      "name": "getVendingMachineBalance",
      "outputs": [
        {
          "internalType": "uint256",
          "name": "",
          "type": "uint256"
        }
      ],
      "stateMutability": "view",
      "type": "function",
      "constant": true
    },
    {
      "inputs": [
        {
          "internalType": "uint256",
          "name": "amount",
          "type": "uint256"
        }
      ],
      "name": "restock",
      "outputs": [],
      "stateMutability": "nonpayable",
      "type": "function"
    },
    {
      "inputs": [
        {
          "internalType": "uint256",
          "name": "amount",
          "type": "uint256"
        }
      ],
      "name": "purchase",
      "outputs": [],
      "stateMutability": "payable",
      "type": "function",
      "payable": true
    }
  ],
  "bytecode": "0x608060405234801561001057600080fd5b50336000806101000a81548173ffffffffffffffffffffffffffffffffffffffff021916908373ffffffffffffffffffffffffffffffffffffffff1602179055506064600160003073ffffffffffffffffffffffffffffffffffffffff1673ffffffffffffffffffffffffffffffffffffffff1681526020019081526020016000208190555061086e806100a56000396000f3fe60806040526004361061004a5760003560e01c80638da5cb5b1461004f5780639a020d8a1461007a578063c21a702a146100b7578063e7644d34146100e0578063efef39a11461010b575b600080fd5b34801561005b57600080fd5b50610064610127565b6040516100719190610458565b60405180910390f35b34801561008657600080fd5b506100a1600480360381019061009c91906104a4565b61014b565b6040516100ae91906104ea565b60405180910390f35b3480156100c357600080fd5b506100de60048036038101906100d99190610531565b610163565b005b3480156100ec57600080fd5b506100f561024a565b60405161010291906104ea565b60405180910390f35b61012560048036038101906101209190610531565b610291565b005b60008054906101000a900473ffffffffffffffffffffffffffffffffffffffff1681565b60016020528060005260406000206000915090505481565b60008054906101000a900473ffffffffffffffffffffffffffffffffffffffff1673ffffffffffffffffffffffffffffffffffffffff163373ffffffffffffffffffffffffffffffffffffffff16146101f1576040517f08c379a00000000000000000000000000000000000000000000000000000000081526004016101e8906105e1565b60405180910390fd5b80600160003073ffffffffffffffffffffffffffffffffffffffff1673ffffffffffffffffffffffffffffffffffffffff16815260200190815260200160002060008282546102409190610630565b9250508190555050565b6000600160003073ffffffffffffffffffffffffffffffffffffffff1673ffffffffffffffffffffffffffffffffffffffff16815260200190815260200160002054905090565b671bc16d674ec80000816102a59190610686565b3410156102e7576040517f08c379a00000000000000000000000000000000000000000000000000000000081526004016102de90610752565b60405180910390fd5b80600160003073ffffffffffffffffffffffffffffffffffffffff1673ffffffffffffffffffffffffffffffffffffffff1681526020019081526020016000205411610368576040517f08c379a000000000000000000000000000000000000000000000000000000000815260040161035f906107e4565b60405180910390fd5b80600160003073ffffffffffffffffffffffffffffffffffffffff1673ffffffffffffffffffffffffffffffffffffffff16815260200190815260200160002060008282546103b79190610804565b9250508190555080600160003373ffffffffffffffffffffffffffffffffffffffff1673ffffffffffffffffffffffffffffffffffffffff168152602001908152602001600020600082825461040d9190610630565b9250508190555050565b600073ffffffffffffffffffffffffffffffffffffffff82169050919050565b600061044282610417565b9050919050565b61045281610437565b82525050565b600060208201905061046d6000830184610449565b92915050565b600080fd5b61048181610437565b811461048c57600080fd5b50565b60008135905061049e81610478565b92915050565b6000602082840312156104ba576104b9610473565b5b60006104c88482850161048f565b91505092915050565b6000819050919050565b6104e4816104d1565b82525050565b60006020820190506104ff60008301846104db565b92915050565b61050e816104d1565b811461051957600080fd5b50565b60008135905061052b81610505565b92915050565b60006020828403121561054757610546610473565b5b60006105558482850161051c565b91505092915050565b600082825260208201905092915050565b7f4f6e6c7920746865206f776e65722063616e207265737420726573746f636b2060008201527f74686973206d616368696e650000000000000000000000000000000000000000602082015250565b60006105cb602c8361055e565b91506105d68261056f565b604082019050919050565b600060208201905081810360008301526105fa816105be565b9050919050565b7f4e487b7100000000000000000000000000000000000000000000000000000000600052601160045260246000fd5b600061063b826104d1565b9150610646836104d1565b9250827fffffffffffffffffffffffffffffffffffffffffffffffffffffffffffffffff0382111561067b5761067a610601565b5b828201905092915050565b6000610691826104d1565b915061069c836104d1565b9250817fffffffffffffffffffffffffffffffffffffffffffffffffffffffffffffffff04831182151516156106d5576106d4610601565b5b828202905092915050565b7f596f75206d75737420706179206c65617374203220657468657220706572206460008201527f6f6e757400000000000000000000000000000000000000000000000000000000602082015250565b600061073c60248361055e565b9150610747826106e0565b604082019050919050565b6000602082019050818103600083015261076b8161072f565b9050919050565b7f4e6f7420656e6f75676820646f6e75747320696e2073746f636b20746f20667560008201527f6c66696c6c207075726368617365207265717565737400000000000000000000602082015250565b60006107ce60368361055e565b91506107d982610772565b604082019050919050565b600060208201905081810360008301526107fd816107c1565b9050919050565b600061080f826104d1565b915061081a836104d1565b92508282101561082d5761082c610601565b5b82820390509291505056fea2646970667358221220591c11c7495e5d5b35f7fbe0af7521880cc21463f646bb46b3d434af7d7fa77064736f6c634300080b0033",
  "immutableReferences": {},
  "source": "// SPDX-License-Identifier: GPL-3.0\n\npragma solidity 0.8.11;\n\ncontract VendingMachine {\n    address public owner;\n    mapping (address => uint) public donutBalances;\n\n    constructor() {\n        owner = msg.sender;\n        donutBalances[address(this)] = 100;\n    }\n\n    function getVendingMachineBalance() public view returns (uint) {\n        return donutBalances[address(this)];\n    }\n\n    function restock(uint amount) public {\n        require(msg.sender == owner, \"Only the owner can rest restock this machine\");\n        donutBalances[address(this)] += amount;\n    }\n\n    function purchase(uint amount) public payable {\n        require(msg.value >= amount * 2 ether, \"You must pay least 2 ether per donut\");\n        require(donutBalances[address(this)] > amount, \"Not enough donuts in stock to fulfill purchase request\");\n        donutBalances[address(this)] -= amount;\n        donutBalances[msg.sender] += amount;\n    }\n}",
  "sourcePath": "/Users/user/projects/VendingMachine/contracts/VendingMachine.sol",
  "compiler": {
    "name": "solc",
    "version": "0.8.11+commit.d7f03943.Emscripten.clang"
  },
  "schemaVersion": "3.4.5",
  "updatedAt": "2022-02-19T19:03:41.987Z",
  "networkType": "ethereum",
  "devdoc": {
    "kind": "dev",
    "methods": {},
    "version": 1
  },
  "userdoc": {
    "kind": "user",
    "methods": {},
    "version": 1
  }
}